{
  "contractName": "AdministrarUsuarios",
  "abi": [
    {
      "inputs": [
        {
          "internalType": "uint256",
          "name": "edad",
          "type": "uint256"
        },
        {
          "internalType": "string",
          "name": "nombre",
          "type": "string"
        },
        {
          "internalType": "string",
          "name": "genero",
          "type": "string"
        }
      ],
      "name": "registrar",
      "outputs": [],
      "stateMutability": "nonpayable",
      "type": "function"
    },
    {
      "inputs": [],
      "name": "consultar",
      "outputs": [
        {
          "components": [
            {
              "internalType": "uint256",
              "name": "edad",
              "type": "uint256"
            },
            {
              "internalType": "string",
              "name": "nombre",
              "type": "string"
            },
            {
              "internalType": "string",
              "name": "genero",
              "type": "string"
            }
          ],
          "internalType": "struct AdministrarUsuarios.Usuario",
          "name": "",
          "type": "tuple"
        }
      ],
      "stateMutability": "view",
      "type": "function"
    },
    {
      "inputs": [],
      "name": "borrar",
      "outputs": [],
      "stateMutability": "nonpayable",
      "type": "function"
    }
  ],
  "bytecode": "0x608060405234801561001057600080fd5b50610557806100206000396000f3fe608060405234801561001057600080fd5b50600436106100415760003560e01c80631660274e146100465780632b59d1fc1461005b57806370f05f9714610063575b600080fd5b6100596100543660046103e0565b610081565b005b6100596100c6565b61006b6100f8565b604051610078919061049a565b60405180910390f35b33600090815260208181526040909120848155835190916100a9916001840191860190610267565b5081516100bf9060028301906020850190610267565b5050505050565b336000908152602081905260408120818155906100e660018301826102eb565b6100f46002830160006102eb565b5050565b61011c60405180606001604052806000815260200160608152602001606081525090565b336000908152602081815260409182902082516060810190935280548352600181018054919284019161014e906104e6565b80601f016020809104026020016040519081016040528092919081815260200182805461017a906104e6565b80156101c75780601f1061019c576101008083540402835291602001916101c7565b820191906000526020600020905b8154815290600101906020018083116101aa57829003601f168201915b505050505081526020016002820180546101e0906104e6565b80601f016020809104026020016040519081016040528092919081815260200182805461020c906104e6565b80156102595780601f1061022e57610100808354040283529160200191610259565b820191906000526020600020905b81548152906001019060200180831161023c57829003601f168201915b505050505081525050905090565b828054610273906104e6565b90600052602060002090601f01602090048101928261029557600085556102db565b82601f106102ae57805160ff19168380011785556102db565b828001600101855582156102db579182015b828111156102db5782518255916020019190600101906102c0565b506102e7929150610328565b5090565b5080546102f7906104e6565b6000825580601f10610307575050565b601f0160209004906000526020600020908101906103259190610328565b50565b5b808211156102e75760008155600101610329565b634e487b7160e01b600052604160045260246000fd5b600082601f83011261036457600080fd5b813567ffffffffffffffff8082111561037f5761037f61033d565b604051601f8301601f19908116603f011681019082821181831017156103a7576103a761033d565b816040528381528660208588010111156103c057600080fd5b836020870160208301376000602085830101528094505050505092915050565b6000806000606084860312156103f557600080fd5b83359250602084013567ffffffffffffffff8082111561041457600080fd5b61042087838801610353565b9350604086013591508082111561043657600080fd5b5061044386828701610353565b9150509250925092565b6000815180845260005b8181101561047357602081850181015186830182015201610457565b81811115610485576000602083870101525b50601f01601f19169290920160200192915050565b602081528151602082015260006020830151606060408401526104c0608084018261044d565b90506040840151601f198483030160608501526104dd828261044d565b95945050505050565b600181811c908216806104fa57607f821691505b6020821081141561051b57634e487b7160e01b600052602260045260246000fd5b5091905056fea26469706673582212207e6338bbc49f731f541f341213eb0d27d4fd2fccf87691bf4fff172884c115ad64736f6c63430008090033",
  "immutableReferences": {},
  "source": "// SPDX-License-Identifier: MIT\npragma solidity ^0.8.0;\n\ncontract AdministrarUsuarios {\n\n    struct Usuario {\n        uint edad;\n        string nombre;\n        string genero;\n    }\n\n   mapping(address => Usuario) private listaUsuarios;\n\n   function registrar(uint edad, string memory nombre, string memory genero) public {\n        Usuario storage _usuario = listaUsuarios[msg.sender];\n        _usuario.edad = edad;\n        _usuario.nombre = nombre;\n        _usuario.genero = genero;\n   }\n\n   function consultar() public view returns(Usuario memory){\n    return listaUsuarios[msg.sender];\n   }\n\n   function borrar() public {\n    delete listaUsuarios[msg.sender];\n   }\n}",
  "sourcePath": "/Users/lscofield/Documents/Projects/truff/multichain-deployer/contracts/AministrarUsuarios.sol",
  "compiler": {
    "name": "solc",
    "version": "0.8.9+commit.e5eed63a.Emscripten.clang"
  },
  "schemaVersion": "3.4.7",
  "updatedAt": "2022-09-04T08:40:47.410Z",
  "devdoc": {
    "kind": "dev",
    "methods": {},
    "version": 1
  },
  "userdoc": {
    "kind": "user",
    "methods": {},
    "version": 1
  }
}