{
  "contractName": "CuentaRegresiva",
  "abi": [
    {
      "inputs": [],
      "stateMutability": "nonpayable",
      "type": "constructor"
    },
    {
      "inputs": [
        {
          "internalType": "uint256",
          "name": "time",
          "type": "uint256"
        }
      ],
      "name": "setDuracionJuego",
      "outputs": [],
      "stateMutability": "nonpayable",
      "type": "function"
    },
    {
      "inputs": [],
      "name": "getDuracionJuego",
      "outputs": [
        {
          "internalType": "uint256",
          "name": "",
          "type": "uint256"
        }
      ],
      "stateMutability": "view",
      "type": "function"
    },
    {
      "inputs": [],
      "name": "restablecer",
      "outputs": [],
      "stateMutability": "nonpayable",
      "type": "function"
    },
    {
      "inputs": [],
      "name": "tiempoRestante",
      "outputs": [
        {
          "internalType": "uint256",
          "name": "",
          "type": "uint256"
        }
      ],
      "stateMutability": "view",
      "type": "function"
    }
  ],
  "bytecode": "0x6080604052603c60015534801561001557600080fd5b5042600055610182806100296000396000f3fe608060405234801561001057600080fd5b506004361061004c5760003560e01c8063099d946c146100515780634d2793f81461005c5780636f646e0914610076578063d89570ed14610089575b600080fd5b61005a42600055565b005b610064610091565b60405190815260200160405180910390f35b61005a61008436600461010e565b600155565b600154610064565b60004260005411156100d55760405162461bcd60e51b81526020600482015260096024820152684e6f2076616c69646f60b81b604482015260640160405180910390fd5b600080546100e39042610127565b9050600060015482101561010457816001546100ff9190610127565b610107565b60005b9392505050565b60006020828403121561012057600080fd5b5035919050565b60008282101561014757634e487b7160e01b600052601160045260246000fd5b50039056fea26469706673582212203b01039c5291e93e2d7946cb8e94de89f61782786c3cbd2f7a911c58f31eb48c64736f6c63430008090033",
  "immutableReferences": {},
  "source": "// SPDX-License-Identifier: MIT\npragma solidity 0.8.9;\n\ncontract CuentaRegresiva {\n    uint256 private tiempoInicio;\n    uint256 private duracionJuego = 60; // segundos\n\n    constructor(){\n        tiempoInicio = block.timestamp;\n    }\n\n    function setDuracionJuego(uint256 time) external {\n        duracionJuego = time;\n    }\n\n    function getDuracionJuego() external view returns(uint256){\n        return duracionJuego;\n    }\n\n    function restablecer() external {\n        tiempoInicio = block.timestamp;\n    }\n\n    function tiempoRestante() public view returns (uint256) {\n        require(tiempoInicio <= block.timestamp, \"No valido\");\n        uint256 diff = block.timestamp - tiempoInicio;\n        uint256 restante = diff >= duracionJuego ? 0 : duracionJuego - diff;\n        return restante;\n    }\n\n}",
  "sourcePath": "/Users/lscofield/Documents/Projects/truff/multichain-deployer/contracts/CuentaRegresiva.sol",
  "compiler": {
    "name": "solc",
    "version": "0.8.9+commit.e5eed63a.Emscripten.clang"
  },
  "schemaVersion": "3.4.7",
  "updatedAt": "2022-08-26T07:03:25.364Z",
  "devdoc": {
    "kind": "dev",
    "methods": {},
    "version": 1
  },
  "userdoc": {
    "kind": "user",
    "methods": {},
    "version": 1
  }
}