{
  "contractName": "DepositarCryptos",
  "abi": [
    {
      "inputs": [
        {
          "internalType": "uint256",
          "name": "cantidad",
          "type": "uint256"
        },
        {
          "internalType": "bytes10",
          "name": "moneda",
          "type": "bytes10"
        }
      ],
      "name": "depositar",
      "outputs": [],
      "stateMutability": "payable",
      "type": "function",
      "payable": true
    },
    {
      "inputs": [
        {
          "internalType": "uint256",
          "name": "cantidad",
          "type": "uint256"
        },
        {
          "internalType": "bytes10",
          "name": "moneda",
          "type": "bytes10"
        },
        {
          "internalType": "address payable",
          "name": "wallet",
          "type": "address"
        }
      ],
      "name": "retirar",
      "outputs": [],
      "stateMutability": "nonpayable",
      "type": "function"
    },
    {
      "inputs": [
        {
          "internalType": "bytes10",
          "name": "moneda",
          "type": "bytes10"
        }
      ],
      "name": "saldo",
      "outputs": [
        {
          "internalType": "uint256",
          "name": "",
          "type": "uint256"
        }
      ],
      "stateMutability": "view",
      "type": "function",
      "constant": true
    }
  ],
  "bytecode": "0x608060405234801561001057600080fd5b506103dc806100206000396000f3fe6080604052600436106100335760003560e01c8062354a821461003857806352f801241461008b578063ad8f4036146100a0575b600080fd5b34801561004457600080fd5b506100796100533660046102c7565b336000908152602081815260408083206001600160b01b03199094168352929052205490565b60405190815260200160405180910390f35b61009e6100993660046102e9565b6100c0565b005b3480156100ac57600080fd5b5061009e6100bb366004610315565b61017f565b81341461010d5760405162461bcd60e51b815260206004820152601660248201527543616e746964616420657320696e636f72726563746160501b60448201526064015b60405180910390fd5b336000908152602081815260408083206001600160b01b0319851684529091528120805490918491839190610143908490610377565b9091555050600181015460b01b6001600160b01b03191661017a5760018101805469ffffffffffffffffffff191660b084901c1790555b505050565b336000908152602081815260408083206001600160b01b031986168452909152902080548411156101e75760405162461bcd60e51b815260206004820152601260248201527153616c646f20696e737566696369656e746560701b6044820152606401610104565b6000826001600160a01b03168560405160006040518083038185875af1925050503d8060008114610234576040519150601f19603f3d011682016040523d82523d6000602084013e610239565b606091505b505090508061028a5760405162461bcd60e51b815260206004820152601c60248201527f4e6f207365206861207265616c697a61646f20656c2072657469726f000000006044820152606401610104565b8482600001600082825461029e919061038f565b90915550505050505050565b80356001600160b01b0319811681146102c257600080fd5b919050565b6000602082840312156102d957600080fd5b6102e2826102aa565b9392505050565b600080604083850312156102fc57600080fd5b8235915061030c602084016102aa565b90509250929050565b60008060006060848603121561032a57600080fd5b8335925061033a602085016102aa565b915060408401356001600160a01b038116811461035657600080fd5b809150509250925092565b634e487b7160e01b600052601160045260246000fd5b6000821982111561038a5761038a610361565b500190565b6000828210156103a1576103a1610361565b50039056fea2646970667358221220cf2b091e8370f9bf471468625ba6cbe1f154c2089eb6c0a4f1be3856e48c4b0b64736f6c63430008090033",
  "immutableReferences": {},
  "source": "// SPDX-License-Identifier: MIT\npragma solidity 0.8.9;\n\ncontract DepositarCryptos {\n\n    struct Cuenta {\n        uint256 saldo;\n        bytes10 moneda;\n    }\n\n    mapping(address => mapping(bytes10 => Cuenta)) cuentas;\n\n    function depositar(uint256 cantidad, bytes10 moneda) external payable {\n        require(msg.value == cantidad, \"Cantidad es incorrecta\");\n        Cuenta storage cuenta = cuentas[msg.sender][moneda];\n        cuenta.saldo += cantidad;\n\n        if(cuenta.moneda == \"\")\n            cuenta.moneda = moneda;\n    }\n\n    function retirar(uint256 cantidad, bytes10 moneda, address payable wallet) external {\n        Cuenta storage cuenta = cuentas[msg.sender][moneda];\n        require(cuenta.saldo >= cantidad, \"Saldo insuficiente\");\n\n        (bool success,) = wallet.call{value: cantidad}(\"\");\n        require(success, \"No se ha realizado el retiro\");\n\n        cuenta.saldo -= cantidad;\n    }\n\n    function saldo(bytes10 moneda) external view returns(uint256){\n        return cuentas[msg.sender][moneda].saldo;\n    }\n}",
  "sourcePath": "/Users/lscofield/Documents/Projects/truff/multichain-deployer/contracts/DepositarCryptos.sol",
  "compiler": {
    "name": "solc",
    "version": "0.8.9+commit.e5eed63a.Emscripten.clang"
  },
  "schemaVersion": "3.4.7",
  "updatedAt": "2022-09-04T08:41:09.531Z",
  "networkType": "ethereum",
  "devdoc": {
    "kind": "dev",
    "methods": {},
    "version": 1
  },
  "userdoc": {
    "kind": "user",
    "methods": {},
    "version": 1
  }
}